:400000000010002011000000D5030000D503000010B500F0FFF9C04670B5164C23688022D20213432360182000F03AFE2268124B13402360114A124B1A601022114B1A6064
:400040001032114B1A6080221206104B1A60002525600F4A0F4B1A600F4A104B1A601049092000F0C3FD092000F0AAFD0D4B1D6070BDC04600010B40FFFFFBFF0600008010
:4000800004010B40080202400C02024008010B400E000080000002401000008040000240B10E00000C020B4010B572B600240FE020486200131959000B00411889881A5ACE
:4000C000C31858880004104300F07EF90134E4B2012CEDD999231B04174A1360EE210902164A1160EE21164A1160164A1360164A1360164A1360164A117806230B43DBB2E9
:4001000013702023134A1360C4218902124A1160124A1360124B06221A60D8221201114B1A600322104B1A602132104B1A60FFF773FF10BD001D0000000001400C00014039
:400140001000014000500F4010500F4030500F4000700F400000044008000440180004400801044008030440000404400804044010B5064C2378002B07D1054B002B02D030
:40018000044800E000BF0123237010BD4801002000000000B01C0000084B10B5002B03D00749084800E000BF07480368002B00D110BD064B002BFBD09847F9E700000000BD
:4001C0004C010020B01C0000C00000200000000010B500F045FC00F077F9002000F0C0FC10BDC04600B591B062B6FFF7F1FF0EA800F07EF801AA0E980F9900F087F801A8D0
:4002000000F0A2FCFA20800000F028FD00F0B4FCC043C0B200F0A4FC0EA800F017F801AA0E980F9900F072F801A800F08DFCFA20400000F013FDE9E702099300D3185A00A5
:400240000F2318401018C0B27047C04630B583B0050001220021682000F068FAC0B20028F7D1012100F0F0FA01220121682000F0AFFB002407E0210069440122002000F091
:4002800007FB0134E4B2052CF5D9210069440122012000F0FDFA012000F0AAFA6B461B787F201840FFF7C8FF28706B465878FFF7C3FF68706B469B783F201840FFF7BCFFF7
:4002C000A8706B46D878FFF7B7FFE8706B461879FFF7B2FF28716B465879FFF7ADFF68716B469879FFF7A8FFA87103B030BDC0460C230370437083700B3BC3701C330371C0
:40030000153B43710E3383717047C046F0B591B003000A900B9110001B0E072B1CD89B001F4AD3589F461F4B0D931DE01E4B0D931AE01E4B0D9317E01D4B0D9314E01D4BC7
:400340001A680D921A790DAB1A710DE01A4B0D930AE01A4B0D9307E00DAA194B19680D91998891809B7993710AAB9A7859781C781D795E799B79FA27FF00BC466344089329
:400380002F2307930696059304950DAB039302943A23019300910B4901F05CF811B0F0BDB41C000053756E004D6F6E005475650057656400D41C0000467269005361740060
:4003C000DC1C0000E41C000010B50A00002101F039F810BD10B501F009F803680C2B00D1FEE7FEE710B50300084A1068C318084A9A1A802A02DC054A136005E000F0F6FFAB
:400400000C2303600120404210BDC046C4000020C801002070B50F4E0F4D13E029686B68AC68002202E001C901C30432A242FAD1E868002202E0002102C304328242FAD128
:400440001035013E002EE9D100F0D6FFFFF7CAFEFEE7C04601000000941D000010B500230AE0032B03D89A000949505800E009489900094A885001332F2BF2D9FFF714FE2B
:400480008022D205116801230B43136010BDC04600000000D50300000000002010B50A2000F08EFB10BDC04610B500F01DF810BD10B5044A1368802109060B431360FFF7D3
:4004C000EDFF10BD0000064010B5064B1B78002B04D1FFF7E9FF0122024B1A70FFF7E8FF10BDC0466401002010B51B4A11680C230B4313600024194B1C60194A194B1A606F
:40050000194B1A4A13601A4A14601A4A14601A4A13601A4B1C600A2000F05CFB03210A2000F076FB16490A2000F060FB154B1C60154B1C60154B1C60154B1C60154B1C60D8
:40054000154B1C601022154B1A70154B1C80154B1C60154B1C6010BD7000064000000640770800806000064007010080000306400403064010030640000206400402064056
:400580007D0F0000C80E0640880E0640480F0640080F0640C80F0640880F064098010020AC010020B80100209C01002010B5144A13685B005B081360002312490B60124994
:4005C0000B601248046812492140016011490B6011490B601149124B19601249124B19601249134B19601349134B19601021134B19701368802109060B43136010BDC04686
:4006000000000640680006406C00064060000640FF5CFFFF880F0640C80F0640F3070000800F0640ED0F0000C00F0640FF0F0000400F064017030000000F06409801002070
:4006400010B504000368002B09D0012000F01EFB2368013B2360002B03D0002003E0002001E08020000610BD10B5002839DBC023034208D00022284B1A601032274B1A700B
:40068000002310243DE0C3070FD5244B1B781B072BD5234B1B685B0001D5002300E0012310211E4A117001242BE0C30520D4830722D4C30605D51022184B1A70002300241C
:4006C0001FE0164B1B781B0719D5144B1B78DB0701D5252200E02422104B1A70002300240FE00123802424060BE00123012408E001238024640004E00023022401E000235A
:400700000024012B02D1FFF751FF02E0054A064B1A60200010BDC04668000640980100206000064017030000000F064070B582B004000D001600244B1B78102B40D10A20EF
:4007400000F048FA214B1B68DB0734D4FA239B005E43019600221E4B1A601E4A1E4B1A601E4A1F4B1A606400FF231C40002D03D12422154B1A7004E02522134B1A70012398
:400780001C43184B1C600222174B1A60124B1C680823FF3320001840144B1B68C02423401843040001A8FFF74BFF2043EED0FFF75BFF040000E008240A2000F001FA00E05E
:4007C0000424200002B070BD9801002064000640080F064017030000000F0640ED0F0000C00F06404002064068000640400F064010B582B0104B1B789B061AD5FA239B009A
:40080000584301900D4B1B689B0601D5182200E010220B4B1A600B4B18681223FF331840040001A8FFF70CFF2043F4D0FFF71CFF00E0042002B010BD9801002064000640BD
:4008400068000640000F064010B582B00D4B1B789B0613D5FA239B00594301910A4B18600A4B18680823FF331840040001A8FFF7E7FE2043F4D0FFF7F7FE00E0042002B07D
:4008800010BDC0469801002040020640000F0640F0B583B004000D00164B1B789B0626D5FA239B005A430192134B18680223FF3318400700114B1B6804261E4001A8FFF7D4
:4008C000BFFE384333000343EED0002E05D00C4B1B682B700B4A094B1A60FFF7C5FE002806D1002C04D10422074B1A6000E0042003B0F0BD98010020000F0640C00F0640BC
:4009000040030640ED0F00006800064070B52B4B1B6820251D402A4C03E0012000F0B6F9013C00F031F9002801D1002CF5D1002C43D0002000F030F9224A13680F218B430B
:400940001360214A13685B005B081360002D18D0002000F021F90A2000F098F9012000F01BF90A2000F092F9154C03E0012000F08DF9013C00F01CF9002803D1002CF5D12E
:4009800000E00F4C002C08D0002000F005F90A2000F07CF901220D4B1A600B4A1368802109060B43136007490B680F229343013A13430B60012000F0EFF870BD6400064090
:4009C000204E000010000140000006406800064010B582B0154B1B789B0623D5FA239B005A4301924000FF240440002903D124220E4B1A7004E025220C4B1A7001231C437D
:400A0000FFF784FF0A4B1C600A4B18680823FF331840040001A8FFF713FE2043F4D0FFF723FE00E0042002B010BDC0469801002040020640000F064010B500F06FF810BDE8
:400A400010B500F01DF810BD10B5044A1368802109060B431360FFF7EFFF10BD0000074010B5064B1B78002B04D1FFF7E9FF0122024B1A70FFF7E8FF10BDC0466C0100202A
:400A8000134A144B1A600023134A13601349144A1160144A14490A6007201449086014490B6006381349086013490A60134A1360134A1360134A1360134A1360134A136031
:400AC000134A1360134A13601268134B1A8070470B000002000007404000074001000A0048000740070000800003074004030740100307404400074000020740040207401E
:400B0000880E0740C80E0740480F0740080F0740C80F0740880F07406E010020064A1168064B0B40902109040B431360044B1A88044B1A607047C04600000140FFFF0FFF8C
:400B40006E010020880F074070B50500002402E000F0B2FB0134285D0028F9D170BDC046044A1368DBB201218B430840184310607047C04600010440024B1B6801201840B8
:400B80007047C04604010440024B1868400801231840704704040440044A1368DBB201218B430840184310607047C04600040440024B1B68012018407047C04604040440EB
:400BC0001F2318401E3B8340014A13607047C04600E100E01F2318401E3B8340014A13607047C04680E100E001BE704770B504000D001F2802D90020FFF7F6FF1034A400D0
:400C000080239B059C4664442068256070BDC04670B504000E00032902D90020FFF7E4FF1F2C02D90020FFF7DFFF03252540ED00063500F09BF9A408A400074B9C466444F1
:400C400021680323AB4099430B003100A9401943216000F08FF970BD00E400E010B5040006E0084B586800F077F9074B9C46644480231B029C42F4D8024B9868604300F04B
:400C80006BF910BDC80000200080FFFF10B5034B1B7B584300F060F910BDC046C8000020F0B557464E46C0B483B0040000F05EF90190E71E2D2F74D83F4B1B78DBB29C42C7
:400CC00008D83E4B1B78DBB29A463D4B1B78DBB2994631E03B4B1B78DBB29C4208D83A4B1B78DBB29A46394B1B78DBB2994623E0374B1B78DBB29C4208D8364B1B78DBB283
:400D00009A46354B1B78DBB2994615E0334B1B78DBB29C4208D8324B1B78DBB29A46314B1B78DBB2994607E02F4B1B78DBB29A462E4B1B78DBB299462D4BDE5D2F2E09D940
:400D40002A2C07D919222B4B1A60052000F004F9192503E0274B1D683F231D40B54206D9234BDA5D234B1A60052000F0F5F81F4B9C4664442378DBB21F4A13601F4B5246CA
:400D80001A601F4B4A461A600520FFF77FFFB5420AD2174BDA5D174B1A60052000F0DCF802E00020FFF720FF019800F0E3F803B00CBC91469A46F0BDC0F1FF0FC1F1FF0FA2
:400DC000C2F1FF0FC3F1FF0FC4F1FF0FC5F1FF0FC6F1FF0FC7F1FF0FC8F1FF0FC9F1FF0FCAF1FF0FCBF1FF0FCCF1FF0FCDF1FF0F0C1D00002CFF0B4028FF0B401CFF0B402E
:400E000020FF0B40034B1868C0231B02184000D00120704700010B4010B500F0A7F8044A1368C02109020B43136000F0A3F810BD00010B4010B500F099F808490A68084B64
:400E40001A408024E40122430A600A6813408022120213430B6000F08DF810BD00010B40FF3FFFFF70B5050000F080F80400FFF7C9FF002803D0FFF7DDFF012100E0002176
:400E800008482840084A1568084B2B40184310601368012901D1FFF7BFFF200000F06AF870BDC0460404040010020B40FBFBFBFF10B5244B1B685B0715D5234B1B685B07A3
:400EC0000ED5224BD969042001401F4C22688A432260DA698243DA611B69002B00D098470420FFF7BFFF174B1B685B0518D5164B1B685B0510D5154BD9698022D20011407C
:400F0000114802688A430260D969114A0A40DA615B69002B00D098478020C000FFF7A2FF084B1B685B030CD5074B1B685B0304D5064B9B69002B00D098478020C002FFF760
:400F400091FF10BD10020B40DC00002070010020FFFBFFFF000000000230800804D0C0460138FDD1C046C046C0467047EFF3108072B6704780F310887047C04610B5AD4BF8
:400F80001B68002B00D09847AB4B1B68DB0702D50022AA4B1A60AA4B1B789B0628D5A94B1B68DB0507D5A84A1188C0239B000B431380012300E00023A24A1268D20706D58D
:400FC000A14A118890239B000B4313800123002B0FD09B4A1278D20701D5012200E002229949088802430A800021954A117000E00023934A1278920600D414E1914A1268E9
:40100000D20611D51022914B1A608D4B1B78DB0701D5012300E002238B4A11880B4313801022874B1A7004E1854A1278120720D5844A126892070AD50222844B1A60824AFC
:40104000118888239B000B431380012311E07C4A1278D20703D52521794A117009E02421774A11707A4A1268002A02D01439794A1160734A1278520700D4ABE0704A1278A2
:40108000D20749D5744A1268120727D5734A1268734909680F240C40724909686418141B082C09D8002C16D16F4A11686F4B0B401360012308340EE008240CE0694A1168CE
:4010C0006B48006841186B480068C0B20870116801311160013C002CF0D119E05E4A1268520715D55F4A116861480068411861480068C0B208701168013111601168574A16
:401100001268914203D204215B4A116000E001235A495B4A11605DE04A4A1268920726D502224A4B1A6057490B680D321A40096880231B020B4000D001239B18524A11689F
:40114000CB1A13601268514B1A603F4A118884239B000B4313804E4B1A68802149020A431A6019684B4A0A401A60012332E04A4A1268D20612D424E0434A1168344A126896
:40118000914211D2404A11684448006841180978C9B243480160116801311160394A12680F210A40082AE7D1374A1168284A1268914202D14021274A11603A493A4A11607D
:4011C00008E0354A1268520604D52F4B1A682F4B1A600123002B2CD0234A1168234B0B4013600023314A13601A4A1360304B1B789B070ED5124B1B78DB0701D5092300E061
:401200000A23114A11880B43138060220C4B1A700FE0284B1B689B0601D5182200E01022154B1A6005E0064B1B78DB0601D4FFF7BDF910BD680100208C0E0640880E06408A
:40124000980100200C0F0640AC010020000F0640B0010020880F0640CC0F0640BC01002008030640B801002060000640FFFEFFFFB40100204003064068000640ED0F0000B3
:40128000C00F064008020640A00100209C01002004020640FFFFFEFF8C0F0640A801002040020640F3070000800F0640C80F0640A401002064000640044B1B680F22134021
:4012C000082BF9D0024B18607047C0460802074040020740002243088B4274D303098B425FD3030A8B4244D3030B8B4228D3030C8B420DD3FF22090212BA030C8B4202D3DE
:401300001212090265D0030B8B4219D300E0090AC30B8B4201D3CB03C01A5241830B8B4201D38B03C01A5241430B8B4201D34B03C01A5241030B8B4201D30B03C01A5241E7
:40134000C30A8B4201D3CB02C01A5241830A8B4201D38B02C01A5241430A8B4201D34B02C01A5241030A8B4201D30B02C01A5241CDD2C3098B4201D3CB01C01A52418309FC
:401380008B4201D38B01C01A524143098B4201D34B01C01A524103098B4201D30B01C01A5241C3088B4201D3CB00C01A524183088B4201D38B00C01A524143088B4201D313
:4013C0004B00C01A5241411A00D20146524110467047FFE701B5002000F006F802BDC0460029F7D076E770477047C046014B18687047C046400100200E4B70B500251E0046
:401400000D4CE41AA410A54204D0AB00F35898470135F8E700F0ACFC084B00251E00084CE41AA410A54204D0AB00F35898470135F8E770BD7C1D00007C1D00007C1D00002B
:40144000841D000003008218934202D019700133FAE770470EB410B59DB002A9029008610B48822488604861012040421FABC881084804CBA400006801938C8100F06EF856
:401480000023029A13701DB010BC08BC03B01847FFFFFF7F40010020F0B58E6885B007000C00039201939E4243D890238A89DB001A423ED003250969236801985B1A0293C4
:4014C00063695D43EB0F5D19029B6D1001331B18AB4200D91D00530510D52900380000F041FB061E14D0029A216900F0D0FAA289194B134080221343A38112E02A003800A8
:4015000000F090FB061E0CD12169380000F0DEFA0C23402201203B60A38940421343A38117E0029B2661F61826606561019EED1AA560019BB34200D21E0032000399206839
:4015400000F0AEFA0020A3689B1BA36023689E19266005B0F0BDC0467FFBFFFFF0B59FB0029005938B890F0016001B0610D50B69002B0DD1402100F0F5FA386038610028D4
:4015800004D10C23029A01381360D8E040237B61002306AD6B6120336B761033AB7634002378002B03D1A31B049312D003E0252BF9D00134F4E7A31B320039000298FFF7E4
:4015C0006BFF431C00D1B4E06A69049B944663446B612378002B00D1ABE00122002352426A6002A95432521801342B60EB60AB601370AB65534E21780522300000F03CFA3D
:40160000002807D00123801B83402A68013413432B60EFE72B68DA0604D55322202102A8121811701A0704D553222B2102A81218117022782A2A03D0099B00200A210EE0A6
:40164000059A111D12680591002A01DB099204E05242EA60022213432B6001340BE02278303A092A04D84B4301349B180120F6E7002800D0099323782E2B1ED163782A2BD7
:401680000AD1059B02341A1D1B680592002B01DA01235B42079310E000230A201A0001346B6021783039092904D84243013452180123F6E7002B00D00792234E2178032278
:4016C000300000F0D9F9002806D04023801B83402A68013413432B60217806221B48661C297600F0C9F9002812D0194B002B06D10722059B073393430833059314E005ABDA
:4017000000933A00134B2900029800E000BF07E005AB00933A000F4B2900029800F08AF80390039B013304D06B69039A9B186B6135E7BB890B985B0601D5012040421FB054
:40174000F0BDC0463C1D0000421D0000461D00000000000099140000F7B5170001938A680B6900900C00934200DA130022003B6043321278002A01D001333B6023689B0621
:4017800002D53B6802333B60062523681D401ED0230043331B785A1E9341226892061CD53020E1184331087021005A1C45310978A2184332023311700FE02200012319322B
:4017C00001990098089EB047431C0ED00135E3683A689B1A9D42F0DBDAE72200019943320098089DA847431C02D10120404220E006232068E1683A6803400025042B03D161
:401800008D1AEB43DB171D40A3682269934201DD9B1AED180027BD420AD0220001231A3201990098089EB047431CDED00137F2E70020FEBDF0B58BB006920A004332079396
:40184000059004920A7E0C00109B6E2A00D1ABE011D8632A22D009D8002A00D1B5E0582A00D0C5E045310A70814A4FE0642A1DD0692A1BD0BCE0732A00D1AAE009D86F2A49
:4018800029D0702A00D0B3E0202209680A43226037E0752A1FD0782A33D0A9E00E001A684236111D196013683370A4E021681A68080606D4490604D5111D19600023D55E74
:4018C00002E0111D19601568002D3BDA2D23049A6D42137036E021681A68080606D4490604D51568111D1960ADB202E0111D196015685F4B227E039308276F2A1DD00A2700
:401900001BE022007821453211705A4A19680392081D226818600D68100602D4500600D5ADB2D30702D520231A4322601027002D03D1202322689A4322602300002243333B
:401940001A7002E00A274A4B03936368A360002B09DB0422216891432160002D05D1049E002B11D07BE0002D79D0049E28003900FFF736FD039B013E5B5C28003370390078
:40198000FFF7A8FC051EF1D1082F09D12368DB0706D563682269934202DC3023013E3370049B9B1B23612BE009681A68080607D4490605D5111D19601368A28A1A8004E05C
:4019C000111D1960136862691A600023049E236116E01A68111D1960166800216268300000F04AF8002801D0801B6060636803E0260042363270012323610023049A13701F
:401A0000079B09AA00932100069B0598FFF7A4FE431C02D10120404227E02369320006990598079DA847431CF4D0236800259B070FD4099BE068984217DA180015E0220020
:401A40000123193206990598079EB047431CE1D00135E368099A9B1A9D42F0DBE9E72600039B42361B7833708EE70BB0F0BDC0464D1D00005E1D0000C9B28218904204D0C7
:401A800003788B4202D00130F8E700207047002310B59A4203D0CC5CC4540133F9E710BD10B5884202D98B18984201D3002305E09B1A013A08D3995C8154FAE7934203D08C
:401AC000CC5CC4540133F9E710BD000070B50500002944D00C1F2368002B00DAE418280000F0D8F81E4A13681100002B02D16360146031E0A3420DD92268A018834203D1DF
:401B000018685B688218226063600C6024E0A24203D813005A68002AF9D11E689819A0420BD12168711858181960824214D110685268411819605A600EE0A04202D90C235A
:401B40002B6009E021686018824203D1106852684118216062605C60280000F09CF870BD94010020032370B5CD1C9D43083506000C2D01D20C2501E0002D01DBA94202D9FC
:401B80000C23336048E0300000F084F8234B1C681A002100002913D00B685B1B0DD40B2B02D90B60CC181EE08C4202D1636813601AE04B6863600C0016E00C004968E9E760
:401BC000174C2368002B03D1300000F051F820602900300000F04CF8431C18D00323C41C9C43A0420DD12560300000F054F8200007220B30231D9043C31A0ED05A42E25085
:401C00000BE0211A300000F033F8431CEBD10C233000336000F03FF8002070BD9401002090010020F8B506000C001500002904D11100FFF797FF040018E0002A03D1FFF7ED
:401C400045FF2C0012E000F027F885420ED929003000FFF787FF071E07D021002A00FFF716FF21003000FFF731FF3C002000F8BD002370B5064C050008002360FEF7B2FBCA
:401C8000431C03D12368002B00D02B6070BDC046C0010020704770470B1F1A68101F002A04DA891804390B68D0180438704700000000000058030000260300002C0300009C
:401CC00032030000380300003E0300004C0300005203000054687572000000004572726F722100000A25642563256425632564202025732C2025642563256425632564003D
:401D000000300F40000400400F400004030405060708090A0B0C0E0F101112131415161718191B1C1D1E1F2021222325262728292A2B2E2F3031323334354300232D302BAF
:401D40002000686C4C00656667454647003031323334353637383941424344454600303132333435363738396162636465660000F8B5C046F8BC08BC9E46704799010000BB
:401D80005D040000F8B5C046F8BC08BC9E46704771010000A81D0000C000002088000000800000000000000000000000C8010020010000000000E02EC05D000018000000B0
:401DC00000366E010404040000000000000000000000000000000000000000000000000000000000000000003A1D00000000000000000000000000000000000000000000DB
:401E000000000000000000000000000000000000000000000000000000000000000000000000000000000000E00000200000000000000000000000000000000000000000A2
:401E40000000000000000000000000000000000000000000000000000000000000000000000000000000000000000000000000000000000000000000000000000000000062
:401E80000000000000000000000000000000000000000000000000000000000000000000000000000000000000000000000000000000000000000000000000000000000022
:401EC00000000000000000000000000000000000000000000000000000000000000000000000000000000000000000000000000000000000000000000000000000000000E2
:401F000000000000000000000000000000000000000000000000000000000000000000000000000000000000000000000000000000000000000000000000000000000000A1
:0200000490303A
:0200000054BCEE
:0200000490402A
:200000000000000000000000000000000000000000000000000000000000000000000000E0
:0200000490501A
:0C0000000002041611931101041F664F4A
:0200000490600A
:0100000001FE
:00000001FF