:400000000010002011000000B5030000B503000010B500F0D7F9C04670B50F4C23688022D20213432360182000F0D4FA22680B4B134023600A4A0B4B1A60063A0A4B1A604B
:40004000002525600949092000F090FA092000F081FA074B1D6070BD00010B40FFFFFBFF0600008004010B4008010B40E50700000C020B4010B572B600240FE017486200DD
:40008000131959000B00411889881A5AC31858880004104300F088F90134E4B2012CEDD9EE2212020E4B1A6099231B040D4A13600D4A13600D4A13600D4A117806230B430A
:4000C000DBB213700B4A0C4B1A600C4A0C4B1A60363A0C4B1A60FFF79FFF10BD680A00000C00014000500F4020500F4030500F4000700F40B66DDB0008000440B60D000049
:40010000080204400803044010B5064C2378002B07D1054B002B02D0044800E000BF0123237010BD5001002000000000440A0000084B10B5002B03D00749084800E000BF9D
:4001400007480368002B00D110BD064B002BFBD09847F9E70000000054010020440A0000C00000200000000010B562B6014800F0BFF8FBE7D81E0000072924D889001B4B93
:400180005B589F46C30720D501202DE083071ED5012029E043071CD5012025E003071AD5012021E0C30618D501201DE0830616D5012019E0430614D5012015E040B20028D3
:4001C00011DA012010E000200EE000200CE000200AE0002008E0002006E0002004E0002002E0002000E000207047C046480A000010B504000021FFF7BFFF00F027F90121CC
:400200002000FFF7B9FF00F02DF902212000FFF7B3FF00F033F903212000FFF7ADFF00F039F904212000FFF7A7FF00F03FF905212000FFF7A1FF00F045F906212000FFF77B
:400240009BFF00F04BF907212000FFF795FF00F01BFB10BD10B5022815D002DC012805D037E003281CD0042827D032E0002000F041F9012000F04AF9012000F053F90120DC
:4002800000F05CF925E0012000F034F9002000F03DF9012000F046F9012000F04FF918E0012000F027F9012000F030F9002000F039F9012000F042F90BE0012000F01AF9C7
:4002C000012000F023F9012000F02CF9002000F035F910BD10B5012000F00CF9012000F015F9012000F01EF9012000F027F910BDF8B54F464646C0B40400FA21890000F096
:40030000E1FA8146FA218900200000F061FB0800642100F0D7FA80466421200000F058FB08000A2100F0CEFA07000A21200000F04FFB0E000420FFF78DFF1A4CFF254B46C9
:400340002B40E05CFFF754FF052000F021F9FFF7C1FF0320FFF77EFF43462B40E05CFFF747FF052000F014F9FFF7B4FF0220FFF771FF2F40E05DFFF73BFF052000F008F961
:40038000FFF7A8FF0120FFF765FF3540605DFFF72FFF052000F0FCF8FFF79CFF0CBC90469946F8BDC400002010B50A00002100F041FB10BD10B500F011FB03680C2B00D102
:4003C000FEE7FEE770B50F4E0F4D13E029686B68AC68002202E001C901C30432A242FAD1E868002202E0002102C304328242FAD11035013E002EE9D100F0F6FAFFF7B4FE80
:40040000FEE7C04601000000C80A000010B500230AE0032B03D89A000949505800E009489900094A885001332F2BF2D9FFF722FE8022D205116801230B43136010BDC04681
:4004400000000000B503000000000020044A1368DBB201218B430840184310607047C0460000044004490A68D2B202239A43400018401043086070470000044004490A68F8
:40048000D2B204239A43800018401043086070470000044004490A68D2B208239A43C00018401043086070470000044004490A68D2B210239A4300011840104308607047EF
:4004C0000000044004490A68D2B220239A43400118401043086070470000044004490A68D2B240239A438001184010430860704700000440044A1368DBB201218B43084066
:40050000184310607047C0460002044004490A68D2B202239A43400018401043086070470002044004490A68D2B204239A43800018401043086070470002044004490A68C2
:40054000D2B208239A43C0001840104308607047000204401F2318401E3B8340014A13607047C04600E100E001BE704770B504000D001F2802D90020FFF7F6FF1034A4006C
:4005800080239B059C4664442068256070BDC04610B5040006E0084B586800F081F9074B9C46644480231B029C42F4D8024B9868604300F075F910BDD00000200080FFFF33
:4005C00010B5034B1B7B584300F06AF910BDC046D0000020F0B557464E46C0B483B0040000F068F90190E71E2D2F74D83F4B1B78DBB29C4208D83E4B1B78DBB29A463D4B18
:400600001B78DBB2994631E03B4B1B78DBB29C4208D83A4B1B78DBB29A46394B1B78DBB2994623E0374B1B78DBB29C4208D8364B1B78DBB29A46354B1B78DBB2994615E0E6
:40064000334B1B78DBB29C4208D8324B1B78DBB29A46314B1B78DBB2994607E02F4B1B78DBB29A462E4B1B78DBB299462D4BDE5D2F2E09D92A2C07D919222B4B1A600520D5
:4006800000F00EF9192503E0274B1D683F231D40B54206D9234BDA5D234B1A60052000F0FFF81F4B9C4664442378DBB21F4A13601F4B52461A601F4B4A461A600520FFF7FA
:4006C0007FFFB5420AD2174BDA5D174B1A60052000F0E6F802E00020FFF746FF019800F0EDF803B00CBC91469A46F0BDC0F1FF0FC1F1FF0FC2F1FF0FC3F1FF0FC4F1FF0FF2
:40070000C5F1FF0FC6F1FF0FC7F1FF0FC8F1FF0FC9F1FF0FCAF1FF0FCBF1FF0FCCF1FF0FCDF1FF0F740A00002CFF0B4028FF0B401CFF0B4020FF0B40034B1868C0231B02AD
:40074000184000D00120704700010B4010B500F0B1F8044A1368C02109020B43136000F0ADF810BD00010B4010B500F0A3F808490A68084B1A408024E40122430A600A6821
:4007800013408022120213430B6000F097F810BD00010B40FF3FFFFF70B5050000F08AF80400FFF7C9FF002803D0FFF7DDFF012100E0002108482840084A1568084B2B4008
:4007C000184310601368012901D1FFF7BFFF200000F074F870BDC0460404040010020B40FBFBFBFF10B5244B1B685B0715D5234B1B685B070ED5224BD969042001401F4C43
:4008000022688A432260DA698243DA611B69002B00D098470420FFF7BFFF174B1B685B0518D5164B1B685B0510D5154BD9698022D2001140114802688A430260D969114A15
:400840000A40DA615B69002B00D098478020C000FFF7A2FF084B1B685B030CD5074B1B685B0304D5064B9B69002B00D098478020C002FFF791FF10BD10020B40E4000020F8
:400880006C010020FFFBFFFF04490A687F231A40C301D8B2104308607047C046000004400230800804D0C0460138FDD1C046C046C0467047EFF3108072B6704780F310882E
:4008C0007047C046002243088B4274D303098B425FD3030A8B4244D3030B8B4228D3030C8B420DD3FF22090212BA030C8B4202D31212090265D0030B8B4219D300E0090A65
:40090000C30B8B4201D3CB03C01A5241830B8B4201D38B03C01A5241430B8B4201D34B03C01A5241030B8B4201D30B03C01A5241C30A8B4201D3CB02C01A5241830A8B420D
:4009400001D38B02C01A5241430A8B4201D34B02C01A5241030A8B4201D30B02C01A5241CDD2C3098B4201D3CB01C01A524183098B4201D38B01C01A524143098B4201D381
:400980004B01C01A524103098B4201D30B01C01A5241C3088B4201D3CB00C01A524183088B4201D38B00C01A524143088B4201D34B00C01A5241411A00D20146524110468F
:4009C0007047FFE701B5002000F006F802BDC0460029F7D076E770477047C046014B18687047C046480100200E4B70B500251E000D4CE41AA410A54204D0AB00F3589847C2
:400A00000135F8E700F04EF8084B00251E00084CE41AA410A54204D0AB00F35898470135F8E770BDB00A0000B00A0000B00A0000B80A000003008218934202D0197001330C
:400A4000FAE7704700000000840100008C010000940100009C010000A4010000AC010000B4010000BC01000000300F40000400400F400004030405060708090A0B0C0E0F58
:400A8000101112131415161718191B1C1D1E1F2021222325262728292A2B2E2F3031323334354300F8B5C046F8BC08BC9E467047310100000D040000F8B5C046F8BC08BC37
:400AC0009E46704709010000D80A0000C0000020900000004000000000000000FC60DAF266B6BEE0FEF60000010000000000E02EC05D00001800000000366E0104040400F4
:400B00000000000000000000000000000000000000000000000000000000000000000000A20A00000000000000000000000000000000000000000000000000000000000009
:400B40000000000000000000000000000000000000000000000000000000000000000000E8000020000000000000000000000000000000000000000000000000000000006D
:400B80000000000000000000000000000000000000000000000000000000000000000000000000000000000000000000000000000000000000000000000000000000000035
:400BC00000000000000000000000000000000000000000000000000000000000000000000000000000000000000000000000000000000000000000000000000000000000F5
:400C000000000000000000000000000000000000000000000000000000000000000000000000000000000000000000000000000000000000000000000000000000000000B4
:400C40000000000000000000000000000000000000000000000000000000000000000000000000000000000000000000000000000000000000000000000000000000000074
:0200000490303A
:02000000D19994
:0200000490402A
:200000000000000000000000000000000000000000000000000000000000000000000000E0
:0200000490501A
:0C00000000020416119311010419E32CF6
:0200000490600A
:0100000001FE
:00000001FF