:400000000010002011000000110200001102000010B500F005F9C04670B5134C23688022D20213432360182000F07EF922680F4B134023600E4A0F4B1A6010220E4B1A60B8
:40004000802212060D4B1A60002525600C4A0D4B1A600D49092000F033F9092000F024F90A4B1D6070BDC04600010B40FFFFFBFF0600008004010B400C02024008010B408E
:400080001000008000000240390500000C020B4010B572B600240FE019486200131959000B00411889881A5AC31858880004104300F0A8F80134E4B2012CEDD999231B046B
:4000C000104A1360EE2109020F4A11600F4A13600F4A13600F4A117806230B43DBB2137020230D4A1360C42189020C4A11600C4A1360D82212010B4B1A60FFF78DFF10BD15
:4001000024080000000001400C00014000500F4030500F4000700F400000044008000440180004400803044010B5064C2378002B07D1054B002B02D0044800E000BF01238C
:40014000237010BD4001002000000000F4070000084B10B5002B03D00749084800E000BF07480368002B00D110BD064B002BFBD09847F9E70000000044010020F407000085
:40018000C00000200000000010B500F03BFA10BD10B562B6FFF7F8FF00F006F8FA20800000F0A0F8F8E7C04610B588B001A912480B00020013CA13C313CA13C31188198043
:4001C00092789A700D4B1B68002B02D101A800F0BFFA00F0A7FA041E09D0094800F0B8FA200000F02DFA0022044B1A6002E00122024B1A6008B010BD080800005C01002041
:40020000FC07000010B50A00002100F0EBFA10BD10B500F0BBFA03680C2B00D1FEE7FEE770B50F4E0F4D13E029686B68AC68002202E001C901C30432A242FAD1E868002250
:4002400002E0002102C304328242FAD11035013E002EE9D100F0A0FAFFF79AFFFEE7C046010000008408000010B500230AE0032B03D89A000949505800E009489900094A68
:40028000885001332F2BF2D9FFF702FF8022D205116801230B43136010BDC0460000000011020000000000201F2318401E3B8340014A13607047C04600E100E001BE7047D1
:4002C00070B504000D001F2802D90020FFF7F6FF1034A40080239B059C4664442068256070BDC04610B5040006E0084B586800F03BFA074B9C46644480231B029C42F4D879
:40030000024B9868604300F02FFA10BDC40000200080FFFF10B5034B1B7B584300F024FA10BDC046C4000020F0B557464E46C0B483B0040000F022FA0190E71E2D2F74D8B1
:400340003F4B1B78DBB29C4208D83E4B1B78DBB29A463D4B1B78DBB2994631E03B4B1B78DBB29C4208D83A4B1B78DBB29A46394B1B78DBB2994623E0374B1B78DBB29C4205
:4003800008D8364B1B78DBB29A46354B1B78DBB2994615E0334B1B78DBB29C4208D8324B1B78DBB29A46314B1B78DBB2994607E02F4B1B78DBB29A462E4B1B78DBB299463B
:4003C0002D4BDE5D2F2E09D92A2C07D919222B4B1A60052000F0C8F9192503E0274B1D683F231D40B54206D9234BDA5D234B1A60052000F0B9F91F4B9C4664442378DBB2B7
:400400001F4A13601F4B52461A601F4B4A461A600520FFF77FFFB5420AD2174BDA5D174B1A60052000F0A0F902E00020FFF746FF019800F0A7F903B00CBC91469A46F0BD1C
:40044000C0F1FF0FC1F1FF0FC2F1FF0FC3F1FF0FC4F1FF0FC5F1FF0FC6F1FF0FC7F1FF0FC8F1FF0FC9F1FF0FCAF1FF0FCBF1FF0FCCF1FF0FCDF1FF0F300800002CFF0B4001
:4004800028FF0B401CFF0B4020FF0B40034B1868C0231B02184000D00120704700010B4010B500F06BF9044A1368C02109020B43136000F067F910BD00010B4010B500F033
:4004C0005DF908490A68084B1A408024E40122430A600A6813408022120213430B6000F051F910BD00010B40FF3FFFFF70B5050000F044F90400FFF7C9FF002803D0FFF709
:40050000DDFF012100E0002108482840084A1568084B2B40184310601368012901D1FFF7BFFF200000F02EF970BDC0460404040010020B40FBFBFBFF10B5244B1B685B07A5
:4005400015D5234B1B685B070ED5224BD969042001401F4C22688A432260DA698243DA611B69002B00D098470420FFF7BFFF174B1B685B0518D5164B1B685B0510D5154BCF
:40058000D9698022D2001140114802688A430260D969114A0A40DA615B69002B00D098478020C000FFF7A2FF084B1B685B030CD5074B1B685B0304D5064B9B69002B00D01A
:4005C00098478020C002FFF791FF10BD10020B40D800002060010020FFFBFFFF10B500F08BF810BD10B500F039F810BD10B5044A1368802109060B431360FFF7EFFF10BD31
:400600000000074010B5064B1B78002B04D1FFF7E9FF0122024B1A70FFF7E8FF10BDC04680010020014B18687047C04640030740024B1B680F2018407047C0460803074028
:40064000044B1B680F221340082BF9D0024B18607047C0460802074040020740134A144B1A600023134A13601349144A1160144A14490A6007201449086014490B60063861
:400680001349086013490A60134A1360134A1360134A1360134A1360134A1360134A1360134A13601268134B1A8070470B000002000007404000074001000A004800074062
:4006C00007000080000307400403074010030740440007400002074004020740880E0740C80E0740480F0740080F0740C80F0740880F074082010020064A1168064B0B4066
:40070000902109040B431360044B1A88044B1A607047C04600000140FFFF0FFF82010020880F074010B5FFF783FF002802D0FFF779FF00E00020054B1A68D8239B001A428C
:4007400003D01A00014B1A60002010BDC00F074070B50500002402E0FFF772FF0134285D0028F9D170BDC0460230800804D0C0460138FDD1C046C046C0467047EFF3108077
:4007800072B6704780F310887047C046014B18687047C0463C0100200E4B70B500251E000D4CE41AA410A54204D0AB00F35898470135F8E700F054F8084B00251E00084C15
:4007C000E41AA410A54204D0AB00F35898470135F8E770BD6C0800006C0800006C0800007408000003008218934202D019700133FAE770470000000025640A000A5265733D
:40080000756C743A200000000A506C65617220656E7465722061206368617261637465723A20000000300F40000400400F400004030405060708090A0B0C0E0F1011121361
:400840001415161718191B1C1D1E1F2021222325262728292A2B2E2F3031323334354300F8B5C046F8BC08BC9E4670475101000069020000F8B5C046F8BC08BC9E467047AA
:400880002901000098080000C000002080000000480000000000000000000000010000000000E02EC05D00001800000000366E0104040400000000000000000000000000D1
:4008C00000000000000000000000000000000000000000005E0800000000000000000000000000000000000000000000000000000000000000000000000000000000000092
:400900000000000000000000000000000000000000000000DC00002000000000000000000000000000000000000000000000000000000000000000000000000000000000BB
:400940000000000000000000000000000000000000000000000000000000000000000000000000000000000000000000000000000000000000000000000000000000000077
:400980000000000000000000000000000000000000000000000000000000000000000000000000000000000000000000000000000000000000000000000000000000000037
:4009C00000000000000000000000000000000000000000000000000000000000000000000000000000000000000000000000000000000000000000000000000000000000F7
:400A000000000000000000000000000000000000000000000000000000000000000000000000000000000000000000000000000000000000000000000000000000000000B6
:0200000490303A
:02000000D0BB73
:0200000490402A
:200000000000000000000000000000000000000000000000000000000000000000000000E0
:0200000490501A
:0C00000000020416119311010418E24ED6
:0200000490600A
:0100000001FE
:00000001FF