:400000000010002011000000110300001103000010B500F085F9C04670B50F4C23688022D20213432360182000F0FEF922680B4B134023600A4A0B4B1A60063A0A4B1A60BC
:40004000002525600949092000F0BAF9092000F0ABF9074B1D6070BD00010B40FFFFFBFF0600008004010B4008010B40390600000C020B4010B572B600240FE01748620038
:40008000131959000B00411889881A5AC31858880004104300F036F90134E4B2012CEDD9EE2212020E4B1A6099231B040D4A13600D4A13600D4A13600D4A117806230B435C
:4000C000DBB213700B4B0C4A13600C4A1360D82212010B4B1A60FFF79FFF10BD100900000C00014000500F4010500F4030500F4000700F40B66DDB000800044008010440F1
:400100000803044010B5064C2378002B07D1054B002B02D0044800E000BF0123237010BDB001002000000000EC080000084B10B5002B03D00749084800E000BF074803682B
:40014000002B00D110BD064B002BFBD09847F9E700000000B4010020EC080000C00000200000000010B562B6002000F0A9F80B2000F038F9F8E7C046072924D889001B4B2D
:400180005B589F46C30720D501202DE083071ED5012029E043071CD5012025E003071AD5012021E0C30618D501201DE0830616D5012019E0430614D5012015E040B20028D3
:4001C00011DA012010E000200EE000200CE000200AE0002008E0002006E0002004E0002002E0002000E000207047C046F008000010B50400002902D0012930D05EE00021A9
:40020000FFF7BAFF00F0BEFA01212000FFF7B4FF00F0C4FA02212000FFF7AEFF00F0CAFA03212000FFF7A8FF00F0D0FA04212000FFF7A2FF00F0D6FA05212000FFF79CFF26
:4002400000F0DCFA06212000FFF796FF00F0E2FA07212000FFF790FF00F0F4FA2EE00021FFF78AFF00F03AFA01212000FFF784FF00F058FA02212000FFF77EFF00F046FABA
:4002800003212000FFF778FF00F034FA04212000FFF772FF00F052FA05212000FFF76CFF00F058FA06212000FFF766FF00F05EFA07212000FFF760FF00F0B8FA10BDC046A2
:4002C00070B506000121FF20FFF792FF00210020FFF78EFF00240FE0F300E318084DE85C0121FFF785FF2D19287A0021FFF780FF012000F077F80134072CEDDD70BDC046AE
:40030000C400002010B50A00002100F0E7FA10BD10B500F0B7FA03680C2B00D1FEE7FEE770B50F4E0F4D13E029686B68AC68002202E001C901C30432A242FAD1E868002276
:4003400002E0002102C304328242FAD11035013E002EE9D100F09CFAFFF704FFFEE7C046010000007009000010B500230AE0032B03D89A000949505800E009489900094A14
:40038000885001332F2BF2D9FFF774FE8022D205116801230B43136010BDC0460000000011030000000000201F2318401E3B8340014A13607047C04600E100E001BE70475E
:4003C00070B504000D001F2802D90020FFF7F6FF1034A40080239B059C4664442068256070BDC04610B5040006E0084B586800F037FA074B9C46644480231B029C42F4D87C
:40040000024B9868604300F02BFA10BD340100200080FFFF10B5034B1B7B584300F020FA10BDC04634010020F0B557464E46C0B483B0040000F01EFA0190E71E2D2F74D8DA
:400440003F4B1B78DBB29C4208D83E4B1B78DBB29A463D4B1B78DBB2994631E03B4B1B78DBB29C4208D83A4B1B78DBB29A46394B1B78DBB2994623E0374B1B78DBB29C4204
:4004800008D8364B1B78DBB29A46354B1B78DBB2994615E0334B1B78DBB29C4208D8324B1B78DBB29A46314B1B78DBB2994607E02F4B1B78DBB29A462E4B1B78DBB299463A
:4004C0002D4BDE5D2F2E09D92A2C07D919222B4B1A60052000F0C4F9192503E0274B1D683F231D40B54206D9234BDA5D234B1A60052000F0B5F91F4B9C4664442378DBB2BE
:400500001F4A13601F4B52461A601F4B4A461A600520FFF77FFFB5420AD2174BDA5D174B1A60052000F09CF902E00020FFF746FF019800F0A3F903B00CBC91469A46F0BD23
:40054000C0F1FF0FC1F1FF0FC2F1FF0FC3F1FF0FC4F1FF0FC5F1FF0FC6F1FF0FC7F1FF0FC8F1FF0FC9F1FF0FCAF1FF0FCBF1FF0FCCF1FF0FCDF1FF0F1C0900002CFF0B4013
:4005800028FF0B401CFF0B4020FF0B40034B1868C0231B02184000D00120704700010B4010B500F067F9044A1368C02109020B43136000F063F910BD00010B4010B500F03A
:4005C00059F908490A68084B1A408024E40122430A600A6813408022120213430B6000F04DF910BD00010B40FF3FFFFF70B5050000F040F90400FFF7C9FF002803D0FFF714
:40060000DDFF012100E0002108482840084A1568084B2B40184310601368012901D1FFF7BFFF200000F02AF970BDC0460404040010020B40FBFBFBFF10B5244B1B685B07A8
:4006400015D5234B1B685B070ED5224BD969042001401F4C22688A432260DA698243DA611B69002B00D098470420FFF7BFFF174B1B685B0518D5164B1B685B0510D5154BCE
:40068000D9698022D2001140114802688A430260D969114A0A40DA615B69002B00D098478020C000FFF7A2FF084B1B685B030CD5074B1B685B0304D5064B9B69002B00D019
:4006C00098478020C002FFF791FF10BD10020B4048010020CC010020FFFBFFFF044A1368DBB201218B430840184310607047C0460000044004490A68D2B208239A43C00056
:4007000018401043086070470000044004490A68D2B204239A43800018401043086070470000044004490A68D2B202239A43400018401043086070470000044004490A6884
:40074000D2B210239A43000118401043086070470000044004490A68D2B220239A43400118401043086070470000044004490A68D2B240239A438001184010430860704756
:400780000000044004490A687F231A40C301D8B2104308607047C04600000440044A1368DBB201218B430840184310607047C0460001044004490A68D2B202239A43400050
:4007C00018401043086070470001044004490A68D2B204239A43800018401043086070470001044004490A68D2B208239A43C00018401043086070470001044004490A683B
:40080000D2B210239A43000118401043086070470001044004490A68D2B220239A43400118401043086070470001044004490A68D2B240239A438001184010430860704793
:400840000001044004490A687F231A40C301D8B2104308607047C04600010440000000000230800804D0C0460138FDD1C046C046C0467047EFF3108072B6704780F31088AD
:400880007047C046014B18687047C046AC0100200E4B70B500251E000D4CE41AA410A54204D0AB00F35898470135F8E700F04EF8084B00251E00084CE41AA410A54204D027
:4008C000AB00F35898470135F8E770BD5809000058090000580900006009000003008218934202D019700133FAE7704700000000840100008C010000940100009C01000078
:40090000A4010000AC010000B4010000BC01000000300F40000400400F400004030405060708090A0B0C0E0F101112131415161718191B1C1D1E1F202122232526272829CE
:400940002A2B2E2F3031323334354300F8B5C046F8BC08BC9E4670472D01000069030000F8B5C046F8BC08BC9E4670470501000080090000C0000020F0000000400000008E
:4009800000000000E7E7E7E70000E7E70102040810204080FF817E7E7E7E81FFFF7B7D00007F7FFFFF86B6B6B6B6B0FFFF6666666698FFFFEFE7EB6D006FEFFFFF787A7AB3
:4009C000BAC6FFFFFF817676768DFFFFFFFFFCFEFEFE00FFFF8976767689FFFFFFB976767681FFFF0000000000000000FFFFFFFFFFFFFFFF010000000000E02EC05D0000EB
:400A00001800000000366E010404040000000000000000000000000000000000000000000000000000000000000000004A090000000000000000000000000000000000009A
:400A400000000000000000000000000000000000000000000000000000000000000000000000000000000000000000004C0100200000000000000000000000000000000009
:400A80000000000000000000000000000000000000000000000000000000000000000000000000000000000000000000000000000000000000000000000000000000000036
:400AC00000000000000000000000000000000000000000000000000000000000000000000000000000000000000000000000000000000000000000000000000000000000F6
:400B000000000000000000000000000000000000000000000000000000000000000000000000000000000000000000000000000000000000000000000000000000000000B5
:400B40000000000000000000000000000000000000000000000000000000000000000000000000000000000000000000000000000000000000000000000000000000000075
:0200000490303A
:0200000086AFC9
:0200000490402A
:200000000000000000000000000000000000000000000000000000000000000000000000E0
:0200000490501A
:0C0000000002041611931101041998422B
:0200000490600A
:0100000001FE
:00000001FF