:400000000010002011000000010300000103000010B500F07DF9C04670B5164C23688022D20213432360182000F068FD2268124B13402360114A124B1A601022114B1A6061
:400040001032114B1A6080221206104B1A60002525600F4A0F4B1A600F4A104B1A601049092000F009FD092000F0F0FC0D4B1D6070BDC04600010B40FFFFFBFF0600008085
:4000800004010B40080202400C02024008010B400E0000800000024010000080400002400D0D00000C020B4010B572B600240FE01D486200131959000B00411889881A5A76
:4000C000C31858880004104300F014F90134E4B2012CEDD999231B04144A1360EE210902134A1160EE21134A1160134A1360134A1360134A117806230B43DBB21370202372
:40010000104A13601049114A1160114A1360D8221201104B1A6003220F4B1A6021320F4B1A60FFF779FF10BDB8110000000001400C0001401000014000500F4030500F40AC
:4001400000700F400000044006100700080004401800044008030440000404400804044010B5064C2378002B07D1054B002B02D0044800E000BF0123237010BD40010020FE
:4001800000000000AC110000084B10B5002B03D00749084800E000BF07480368002B00D110BD064B002BFBD09847F9E70000000044010020AC110000C000002000000000A2
:4001C00010B500F02BF800F0FDF810BD00B583B062B6FFF7F5FF002000F0EAFD044800F00DFC012000F0E4FD684600F031F8F8E7B011000010B500F0EBFB10BD10B500F0D9
:4002000099FB10BD10B5044A1368802109060B431360FFF7EFFF10BD0000074010B5064B1B78002B04D1FFF7E9FF0122024B1A70FFF7E8FF10BDC0465C010020020993001A
:40024000D3185A000F2318401018C0B27047C04630B583B0050007220021684600F09EFF01220021682000F0DFF9C0B20028F7D1012100F067FA01220121682000F026FB6F
:40028000002407E0210069440122002000F07EFA0134E4B2052CF5D9210069440122012000F074FA012000F021FA6B461878FFF7C5FF28706B465878FFF7C0FF68706B4602
:4002C0009878FFF7BBFFA8706B46D878FFF7B6FFE8706B461879FFF7B1FF28716B465879FFF7ACFF68716B469879FFF7A7FFA87103B030BD10B50A00002100F04FFF10BD93
:4003000010B500F01FFF03680C2B00D1FEE7FEE770B50F4E0F4D13E029686B68AC68002202E001C901C30432A242FAD1E868002202E0002102C304328242FAD11035013E6A
:40034000002EE9D100F004FFFFF740FFFEE7C046010000001812000010B500230AE0032B03D89A000949505800E009489900094A885001332F2BF2D9FFF796FE8022D20597
:40038000116801230B43136010BDC04600000000010300000000002010B50A2000F056FB10BDC04610B500F01DF810BD10B5044A1368802109060B431360FFF7EDFF10BDA0
:4003C0000000064010B5064B1B78002B04D1FFF7E9FF0122024B1A70FFF7E8FF10BDC0466001002010B51B4A11680C230B4313600024194B1C60194A194B1A60194B1A4A65
:4004000013601A4A14601A4A14601A4A13601A4B1C600A2000F024FB03210A2000F03EFB16490A2000F028FB154B1C60154B1C60154B1C60154B1C60154B1C60154B1C606D
:400440001022154B1A70154B1C80154B1C60154B1C6010BD70000640000006407708008060000640070100800003064004030640100306400002064004020640ED0D000039
:40048000C80E0640880E0640480F0640080F0640C80F0640880F0640880100209401002098010020AC01002010B5144A13685B005B081360002312490B6012490B60124894
:4004C000046812492140016011490B6011490B601149124B19601249124B19601249134B19601349134B19601021134B19701368802109060B43136010BDC0460000064006
:40050000680006406C00064060000640FF5CFFFF880F0640C80F0640F3070000800F0640ED0F0000C00F0640FF0F0000400F064017030000000F06408801002010B50400FE
:400540000368002B09D0012000F0CEFA2368013B2360002B03D0002003E0002001E08020000610BD10B5002839DBC023034208D00022284B1A601032274B1A7000231024CF
:400580003DE0C3070FD5244B1B781B072BD5234B1B685B0001D5002300E0012310211E4A117001242BE0C30520D4830722D4C30605D51022184B1A70002300241FE0164B14
:4005C0001B781B0719D5144B1B78DB0701D5252200E02422104B1A70002300240FE00123802424060BE00123012408E001238024640004E00023022401E000230024012B6B
:4006000002D1FFF751FF02E0054A064B1A60200010BDC04668000640880100206000064017030000000F064070B582B004000D001600244B1B78102B40D10A2000F010FA56
:40064000214B1B68DB0734D4FA239B005E43019600221E4B1A601E4A1E4B1A601E4A1F4B1A606400FF231C40002D03D12422154B1A7004E02522134B1A7001231C43184B09
:400680001C600222174B1A60124B1C680823FF3320001840144B1B68C02423401843040001A8FFF74BFF2043EED0FFF75BFF040000E008240A2000F0C9F900E00424200012
:4006C00002B070BD8801002064000640080F064017030000000F0640ED0F0000C00F06404002064068000640400F064010B582B0104B1B789B061AD5FA239B0058430190C7
:400700000D4B1B689B0601D5182200E010220B4B1A600B4B18681223FF331840040001A8FFF70CFF2043F4D0FFF71CFF00E0042002B010BD8801002064000640680006404C
:40074000000F064010B582B00D4B1B789B0613D5FA239B00594301910A4B18600A4B18680823FF331840040001A8FFF7E7FE2043F4D0FFF7F7FE00E0042002B010BDC04659
:400780008801002040020640000F0640F0B583B004000D00164B1B789B0626D5FA239B005A430192134B18680223FF3318400700114B1B6804261E4001A8FFF7BFFE384380
:4007C00033000343EED0002E05D00C4B1B682B700B4A094B1A60FFF7C5FE002806D1002C04D10422074B1A6000E0042003B0F0BD88010020000F0640C00F0640400306407C
:40080000ED0F00006800064070B52B4B1B6820251D402A4C03E0012000F066F9013C00F0F9F8002801D1002CF5D1002C43D0002000F0F8F8224A13680F218B431360214A79
:4008400013685B005B081360002D18D0002000F0E9F80A2000F048F9012000F0E3F80A2000F042F9154C03E0012000F03DF9013C00F0E4F8002803D1002CF5D100E00F4C6D
:40088000002C08D0002000F0CDF80A2000F02CF901220D4B1A600B4A1368802109060B43136007490B680F229343013A13430B60012000F0B7F870BD64000640204E00001F
:4008C00010000140000006406800064010B582B0154B1B789B0623D5FA239B005A4301924000FF240440002903D124220E4B1A7004E025220C4B1A7001231C43FFF784FF73
:400900000A4B1C600A4B18680823FF331840040001A8FFF713FE2043F4D0FFF723FE00E0042002B010BDC0468801002040020640000F0640134A144B1A600023134A136032
:400940001349144A1160144A14490A6007201449086014490B6006381349086013490A60134A1360134A1360134A1360134A1360134A1360134A1360134A13601268134B23
:400980001A8070470B000002000007404000074001000A004800074007000080000307400403074010030740440007400002074004020740880E0740C80E0740480F07403F
:4009C000080F0740C80F0740880F07405E010020064A1168064B0B40902109040B431360044B1A88044B1A607047C04600000140FFFF0FFF5E010020880F074070B50500EF
:400A0000002402E000F090FB0134285D0028F9D170BDC046024B1868400801231840704704040440044A1368DBB201218B430840184310607047C04600040440024B1B6894
:400A4000012018407047C046040404401F2318401E3B8340014A13607047C04600E100E01F2318401E3B8340014A13607047C04680E100E001BE704770B504000D001F289D
:400A800002D90020FFF7F6FF1034A40080239B059C4664442068256070BDC04670B504000E00032902D90020FFF7E4FF1F2C02D90020FFF7DFFF03252540ED00063500F065
:400AC0008DF9A408A400074B9C46644421680323AB4099430B003100A9401943216000F081F970BD00E400E010B5034B1B7B584300F06AF910BDC046C4000020F0B55746E1
:400B00004E46C0B483B0040000F068F90190E71E2D2F74D83F4B1B78DBB29C4208D83E4B1B78DBB29A463D4B1B78DBB2994631E03B4B1B78DBB29C4208D83A4B1B78DBB255
:400B40009A46394B1B78DBB2994623E0374B1B78DBB29C4208D8364B1B78DBB29A46354B1B78DBB2994615E0334B1B78DBB29C4208D8324B1B78DBB29A46314B1B78DBB245
:400B8000994607E02F4B1B78DBB29A462E4B1B78DBB299462D4BDE5D2F2E09D92A2C07D919222B4B1A60052000F00EF9192503E0274B1D683F231D40B54206D9234BDA5DBC
:400BC000234B1A60052000F0FFF81F4B9C4664442378DBB21F4A13601F4B52461A601F4B4A461A600520FFF77FFFB5420AD2174BDA5D174B1A60052000F0E6F802E0002043
:400C0000FFF738FF019800F0EDF803B00CBC91469A46F0BDC0F1FF0FC1F1FF0FC2F1FF0FC3F1FF0FC4F1FF0FC5F1FF0FC6F1FF0FC7F1FF0FC8F1FF0FC9F1FF0FCAF1FF0FCE
:400C4000CBF1FF0FCCF1FF0FCDF1FF0FC41100002CFF0B4028FF0B401CFF0B4020FF0B40034B1868C0231B02184000D00120704700010B4010B500F0B1F8044A1368C02164
:400C800009020B43136000F0ADF810BD00010B4010B500F0A3F808490A68084B1A408024E40122430A600A6813408022120213430B6000F097F810BD00010B40FF3FFFFF92
:400CC00070B5050000F08AF80400FFF7C9FF002803D0FFF7DDFF012100E0002108482840084A1568084B2B40184310601368012901D1FFF7BFFF200000F074F870BDC046BC
:400D00000404040010020B40FBFBFBFF10B5244B1B685B0715D5234B1B685B070ED5224BD969042001401F4C22688A432260DA698243DA611B69002B00D098470420FFF70E
:400D4000BFFF174B1B685B0518D5164B1B685B0510D5154BD9698022D2001140114802688A430260D969114A0A40DA615B69002B00D098478020C000FFF7A2FF084B1B6874
:400D80005B030CD5074B1B685B0304D5064B9B69002B00D098478020C002FFF791FF10BD10020B40D800002068010020FFFBFFFF044A1368DBB201218B43084018431060D5
:400DC0007047C046000004400230800804D0C0460138FDD1C046C046C0467047EFF3108072B6704780F310887047C04610B5AD4B1B68002B00D09847AB4B1B68DB0702D529
:400E00000022AA4B1A60AA4B1B789B0628D5A94B1B68DB0507D5A84A1188C0239B000B431380012300E00023A24A1268D20706D5A14A118890239B000B4313800123002B9B
:400E40000FD09B4A1278D20701D5012200E002229949088802430A800021954A117000E00023934A1278920600D414E1914A1268D20611D51022914B1A608D4B1B78DB07D9
:400E800001D5012300E002238B4A11880B4313801022874B1A7004E1854A1278120720D5844A126892070AD50222844B1A60824A118888239B000B431380012311E07C4A76
:400EC0001278D20703D52521794A117009E02421774A11707A4A1268002A02D01439794A1160734A1278520700D4ABE0704A1278D20749D5744A1268120727D5734A126844
:400F0000734909680F240C40724909686418141B082C09D8002C16D16F4A11686F4B0B401360012308340EE008240CE0694A11686B48006841186B480068C0B208701168D8
:400F400001311160013C002CF0D119E05E4A1268520715D55F4A116861480068411861480068C0B208701168013111601168574A1268914203D204215B4A116000E0012328
:400F80005A495B4A11605DE04A4A1268920726D502224A4B1A6057490B680D321A40096880231B020B4000D001239B18524A1168CB1A13601268514B1A603F4A11888423D1
:400FC0009B000B4313804E4B1A68802149020A431A6019684B4A0A401A60012332E04A4A1268D20612D424E0434A1168344A1268914211D2404A1168444800684118097842
:40100000C9B243480160116801311160394A12680F210A40082AE7D1374A1168284A1268914202D14021274A11603A493A4A116008E0354A1268520604D52F4B1A682F4BFD
:401040001A600123002B2CD0234A1168234B0B4013600023314A13601A4A1360304B1B789B070ED5124B1B78DB0701D5092300E00A23114A11880B43138060220C4B1A7005
:401080000FE0284B1B689B0601D5182200E01022154B1A6005E0064B1B78DB0601D4FFF703FA10BD640100208C0E0640880E0640880100200C0F064094010020000F06401A
:4010C000A8010020880F0640CC0F06408C010020080306409801002060000640FFFEFFFFA00100204003064068000640ED0F0000C00F06400802064090010020AC010020FA
:4011000004020640FFFFFEFF8C0F06409C01002040020640F3070000800F0640C80F0640A401002064000640044B1B680F221340082BF9D0024B18607047C04608020740C2
:4011400040020740014B18687047C0463C0100200E4B70B500251E000D4CE41AA410A54204D0AB00F35898470135F8E700F042F8084B00251E00084CE41AA410A54204D00E
:40118000AB00F35898470135F8E770BD0012000000120000001200000812000003008218934202D019700133FAE77047000000000A53746172740A0000300F40000400404A
:4011C0000F400004030405060708090A0B0C0E0F101112131415161718191B1C1D1E1F2021222325262728292A2B2E2F3031323334354300F8B5C046F8BC08BC9E467047A3
:401200008901000059030000F8B5C046F8BC08BC9E4670476101000028120000C0000020800000007000000000000000010000000000E02EC05D00001800000000366E01AD
:40124000040404000000000000000000000000000000000000000000000000000000000000000000F21100000000000000000000000000000000000000000000000000005F
:40128000000000000000000000000000000000000000000000000000000000000000000000000000DC00002000000000000000000000000000000000000000000000000032
:4012C00000000000000000000000000000000000000000000000000000000000000000000000000000000000000000000000000000000000000000000000000000000000EE
:4013000000000000000000000000000000000000000000000000000000000000000000000000000000000000000000000000000000000000000000000000000000000000AD
:40134000000000000000000000000000000000000000000000000000000000000000000000000000000000000000000000000000000000000000000000000000000000006D
:40138000000000000000000000000000000000000000000000000000000000000000000000000000000000000000000000000000000000000000000000000000000000002D
:0200000490303A
:02000000950D5C
:0200000490402A
:200000000000000000000000000000000000000000000000000000000000000000000000E0
:0200000490501A
:0C0000000002041611931101041BA6A0BD
:0200000490600A
:0100000001FE
:00000001FF